{"src/TonyLend.sol":{"SimplePriceOracle":{"abi":[{"type":"constructor","inputs":[{"name":"_price","type":"uint256","internalType":"uint256"}],"stateMutability":"nonpayable"},{"type":"function","name":"getAssetPrice","inputs":[{"name":"_assetId","type":"uint256","internalType":"uint256"}],"outputs":[{"name":"","type":"uint256","internalType":"uint256"}],"stateMutability":"view"},{"type":"function","name":"owner","inputs":[],"outputs":[{"name":"","type":"address","internalType":"address"}],"stateMutability":"view"},{"type":"function","name":"price","inputs":[],"outputs":[{"name":"","type":"uint256","internalType":"uint256"}],"stateMutability":"view"},{"type":"function","name":"renounceOwnership","inputs":[],"outputs":[],"stateMutability":"nonpayable"},{"type":"function","name":"setPrice","inputs":[{"name":"_price","type":"uint256","internalType":"uint256"}],"outputs":[],"stateMutability":"nonpayable"},{"type":"function","name":"transferOwnership","inputs":[{"name":"newOwner","type":"address","internalType":"address"}],"outputs":[],"stateMutability":"nonpayable"},{"type":"event","name":"OwnershipTransferred","inputs":[{"name":"previousOwner","type":"address","indexed":true,"internalType":"address"},{"name":"newOwner","type":"address","indexed":true,"internalType":"address"}],"anonymous":false},{"type":"error","name":"OwnableInvalidOwner","inputs":[{"name":"owner","type":"address","internalType":"address"}]},{"type":"error","name":"OwnableUnauthorizedAccount","inputs":[{"name":"account","type":"address","internalType":"address"}]}],"userdoc":{},"devdoc":{},"evm":{"bytecode":{"object":"6080604052348015600e575f5ffd5b50604051610306380380610306833981016040819052602b9160ad565b3380604f57604051631e4fbdf760e01b81525f600482015260240160405180910390fd5b605681605e565b5060015560c3565b5f80546001600160a01b038381166001600160a01b0319831681178455604051919092169283917f8be0079c531659141344cd1fd0a4f28419497f9722a3daafe3b4186f6b6457e09190a35050565b5f6020828403121560bc575f5ffd5b5051919050565b610236806100d05f395ff3fe608060405234801561000f575f5ffd5b5060043610610060575f3560e01c80635e694cf514610064578063715018a61461008c5780638da5cb5b1461009657806391b7f5ed146100b0578063a035b1fe146100c3578063f2fde38b146100cc575b5f5ffd5b6100796100723660046101bc565b5060015490565b6040519081526020015b60405180910390f35b6100946100df565b005b5f546040516001600160a01b039091168152602001610083565b6100946100be3660046101bc565b6100f2565b61007960015481565b6100946100da3660046101d3565b6100ff565b6100e7610141565b6100f05f61016d565b565b6100fa610141565b600155565b610107610141565b6001600160a01b03811661013557604051631e4fbdf760e01b81525f60048201526024015b60405180910390fd5b61013e8161016d565b50565b5f546001600160a01b031633146100f05760405163118cdaa760e01b815233600482015260240161012c565b5f80546001600160a01b038381166001600160a01b0319831681178455604051919092169283917f8be0079c531659141344cd1fd0a4f28419497f9722a3daafe3b4186f6b6457e09190a35050565b5f602082840312156101cc575f5ffd5b5035919050565b5f602082840312156101e3575f5ffd5b81356001600160a01b03811681146101f9575f5ffd5b939250505056fea264697066735822122077b4c6df6d83093d2858710e6651b63a50fba29866e65020495aa440c5cb0ab764736f6c634300081b0033","opcodes":"PUSH1 0x80 PUSH1 0x40 MSTORE CALLVALUE DUP1 ISZERO PUSH1 0xE JUMPI PUSH0 PUSH0 REVERT JUMPDEST POP PUSH1 0x40 MLOAD PUSH2 0x306 CODESIZE SUB DUP1 PUSH2 0x306 DUP4 CODECOPY DUP2 ADD PUSH1 0x40 DUP2 SWAP1 MSTORE PUSH1 0x2B SWAP2 PUSH1 0xAD JUMP JUMPDEST CALLER DUP1 PUSH1 0x4F JUMPI PUSH1 0x40 MLOAD PUSH4 0x1E4FBDF7 PUSH1 0xE0 SHL DUP2 MSTORE PUSH0 PUSH1 0x4 DUP3 ADD MSTORE PUSH1 0x24 ADD PUSH1 0x40 MLOAD DUP1 SWAP2 SUB SWAP1 REVERT JUMPDEST PUSH1 0x56 DUP2 PUSH1 0x5E JUMP JUMPDEST POP PUSH1 0x1 SSTORE PUSH1 0xC3 JUMP JUMPDEST PUSH0 DUP1 SLOAD PUSH1 0x1 PUSH1 0x1 PUSH1 0xA0 SHL SUB DUP4 DUP2 AND PUSH1 0x1 PUSH1 0x1 PUSH1 0xA0 SHL SUB NOT DUP4 AND DUP2 OR DUP5 SSTORE PUSH1 0x40 MLOAD SWAP2 SWAP1 SWAP3 AND SWAP3 DUP4 SWAP2 PUSH32 0x8BE0079C531659141344CD1FD0A4F28419497F9722A3DAAFE3B4186F6B6457E0 SWAP2 SWAP1 LOG3 POP POP JUMP JUMPDEST PUSH0 PUSH1 0x20 DUP3 DUP5 SUB SLT ISZERO PUSH1 0xBC JUMPI PUSH0 PUSH0 REVERT JUMPDEST POP MLOAD SWAP2 SWAP1 POP JUMP JUMPDEST PUSH2 0x236 DUP1 PUSH2 0xD0 PUSH0 CODECOPY PUSH0 RETURN INVALID PUSH1 0x80 PUSH1 0x40 MSTORE CALLVALUE DUP1 ISZERO PUSH2 0xF JUMPI PUSH0 PUSH0 REVERT JUMPDEST POP PUSH1 0x4 CALLDATASIZE LT PUSH2 0x60 JUMPI PUSH0 CALLDATALOAD PUSH1 0xE0 SHR DUP1 PUSH4 0x5E694CF5 EQ PUSH2 0x64 JUMPI DUP1 PUSH4 0x715018A6 EQ PUSH2 0x8C JUMPI DUP1 PUSH4 0x8DA5CB5B EQ PUSH2 0x96 JUMPI DUP1 PUSH4 0x91B7F5ED EQ PUSH2 0xB0 JUMPI DUP1 PUSH4 0xA035B1FE EQ PUSH2 0xC3 JUMPI DUP1 PUSH4 0xF2FDE38B EQ PUSH2 0xCC JUMPI JUMPDEST PUSH0 PUSH0 REVERT JUMPDEST PUSH2 0x79 PUSH2 0x72 CALLDATASIZE PUSH1 0x4 PUSH2 0x1BC JUMP JUMPDEST POP PUSH1 0x1 SLOAD SWAP1 JUMP JUMPDEST PUSH1 0x40 MLOAD SWAP1 DUP2 MSTORE PUSH1 0x20 ADD JUMPDEST PUSH1 0x40 MLOAD DUP1 SWAP2 SUB SWAP1 RETURN JUMPDEST PUSH2 0x94 PUSH2 0xDF JUMP JUMPDEST STOP JUMPDEST PUSH0 SLOAD PUSH1 0x40 MLOAD PUSH1 0x1 PUSH1 0x1 PUSH1 0xA0 SHL SUB SWAP1 SWAP2 AND DUP2 MSTORE PUSH1 0x20 ADD PUSH2 0x83 JUMP JUMPDEST PUSH2 0x94 PUSH2 0xBE CALLDATASIZE PUSH1 0x4 PUSH2 0x1BC JUMP JUMPDEST PUSH2 0xF2 JUMP JUMPDEST PUSH2 0x79 PUSH1 0x1 SLOAD DUP2 JUMP JUMPDEST PUSH2 0x94 PUSH2 0xDA CALLDATASIZE PUSH1 0x4 PUSH2 0x1D3 JUMP JUMPDEST PUSH2 0xFF JUMP JUMPDEST PUSH2 0xE7 PUSH2 0x141 JUMP JUMPDEST PUSH2 0xF0 PUSH0 PUSH2 0x16D JUMP JUMPDEST JUMP JUMPDEST PUSH2 0xFA PUSH2 0x141 JUMP JUMPDEST PUSH1 0x1 SSTORE JUMP JUMPDEST PUSH2 0x107 PUSH2 0x141 JUMP JUMPDEST PUSH1 0x1 PUSH1 0x1 PUSH1 0xA0 SHL SUB DUP2 AND PUSH2 0x135 JUMPI PUSH1 0x40 MLOAD PUSH4 0x1E4FBDF7 PUSH1 0xE0 SHL DUP2 MSTORE PUSH0 PUSH1 0x4 DUP3 ADD MSTORE PUSH1 0x24 ADD JUMPDEST PUSH1 0x40 MLOAD DUP1 SWAP2 SUB SWAP1 REVERT JUMPDEST PUSH2 0x13E DUP2 PUSH2 0x16D JUMP JUMPDEST POP JUMP JUMPDEST PUSH0 SLOAD PUSH1 0x1 PUSH1 0x1 PUSH1 0xA0 SHL SUB AND CALLER EQ PUSH2 0xF0 JUMPI PUSH1 0x40 MLOAD PUSH4 0x118CDAA7 PUSH1 0xE0 SHL DUP2 MSTORE CALLER PUSH1 0x4 DUP3 ADD MSTORE PUSH1 0x24 ADD PUSH2 0x12C JUMP JUMPDEST PUSH0 DUP1 SLOAD PUSH1 0x1 PUSH1 0x1 PUSH1 0xA0 SHL SUB DUP4 DUP2 AND PUSH1 0x1 PUSH1 0x1 PUSH1 0xA0 SHL SUB NOT DUP4 AND DUP2 OR DUP5 SSTORE PUSH1 0x40 MLOAD SWAP2 SWAP1 SWAP3 AND SWAP3 DUP4 SWAP2 PUSH32 0x8BE0079C531659141344CD1FD0A4F28419497F9722A3DAAFE3B4186F6B6457E0 SWAP2 SWAP1 LOG3 POP POP JUMP JUMPDEST PUSH0 PUSH1 0x20 DUP3 DUP5 SUB SLT ISZERO PUSH2 0x1CC JUMPI PUSH0 PUSH0 REVERT JUMPDEST POP CALLDATALOAD SWAP2 SWAP1 POP JUMP JUMPDEST PUSH0 PUSH1 0x20 DUP3 DUP5 SUB SLT ISZERO PUSH2 0x1E3 JUMPI PUSH0 PUSH0 REVERT JUMPDEST DUP2 CALLDATALOAD PUSH1 0x1 PUSH1 0x1 PUSH1 0xA0 SHL SUB DUP2 AND DUP2 EQ PUSH2 0x1F9 JUMPI PUSH0 PUSH0 REVERT JUMPDEST SWAP4 SWAP3 POP POP POP JUMP INVALID LOG2 PUSH5 0x6970667358 0x22 SLT KECCAK256 PUSH24 0xB4C6DF6D83093D2858710E6651B63A50FBA29866E6502049 GAS LOG4 BLOCKHASH 0xC5 0xCB EXP 0xB7 PUSH5 0x736F6C6343 STOP ADDMOD SHL STOP CALLER ","linkReferences":{}},"methodIdentifiers":{"getAssetPrice(uint256)":"5e694cf5","owner()":"8da5cb5b","price()":"a035b1fe","renounceOwnership()":"715018a6","setPrice(uint256)":"91b7f5ed","transferOwnership(address)":"f2fde38b"}}}}}