{"src/TonyLend.sol":{"TonyLend":{"abi":[{"type":"constructor","inputs":[],"stateMutability":"nonpayable"},{"type":"function","name":"BAD_DEBT_RATIO","inputs":[],"outputs":[{"name":"","type":"uint256","internalType":"uint256"}],"stateMutability":"view"},{"type":"function","name":"LIQUIDATION_CLOSE_FACTOR","inputs":[],"outputs":[{"name":"","type":"uint256","internalType":"uint256"}],"stateMutability":"view"},{"type":"function","name":"MAX_LOOPS","inputs":[],"outputs":[{"name":"","type":"uint256","internalType":"uint256"}],"stateMutability":"view"},{"type":"function","name":"PRECISION","inputs":[],"outputs":[{"name":"","type":"uint256","internalType":"uint256"}],"stateMutability":"view"},{"type":"function","name":"addAsset","inputs":[{"name":"_token","type":"address","internalType":"address"},{"name":"_baseRate","type":"uint256","internalType":"uint256"}],"outputs":[],"stateMutability":"nonpayable"},{"type":"function","name":"assetCount","inputs":[],"outputs":[{"name":"","type":"uint256","internalType":"uint256"}],"stateMutability":"view"},{"type":"function","name":"assets","inputs":[{"name":"","type":"uint256","internalType":"uint256"}],"outputs":[{"name":"token","type":"address","internalType":"contract IERC20"},{"name":"totalDeposited","type":"uint256","internalType":"uint256"},{"name":"totalBorrowed","type":"uint256","internalType":"uint256"},{"name":"baseRate","type":"uint256","internalType":"uint256"}],"stateMutability":"view"},{"type":"function","name":"borrow","inputs":[{"name":"_assetId","type":"uint256","internalType":"uint256"},{"name":"_amount","type":"uint256","internalType":"uint256"}],"outputs":[],"stateMutability":"nonpayable"},{"type":"function","name":"calculateHealthFactor","inputs":[{"name":"_user","type":"address","internalType":"address"}],"outputs":[{"name":"","type":"uint256","internalType":"uint256"}],"stateMutability":"view"},{"type":"function","name":"deposit","inputs":[{"name":"_assetId","type":"uint256","internalType":"uint256"},{"name":"_amount","type":"uint256","internalType":"uint256"}],"outputs":[],"stateMutability":"nonpayable"},{"type":"function","name":"getAssetPrice","inputs":[{"name":"_assetId","type":"uint256","internalType":"uint256"}],"outputs":[{"name":"","type":"uint256","internalType":"uint256"}],"stateMutability":"view"},{"type":"function","name":"getInterestRate","inputs":[{"name":"_assetId","type":"uint256","internalType":"uint256"}],"outputs":[{"name":"","type":"uint256","internalType":"uint256"}],"stateMutability":"view"},{"type":"function","name":"liquidate","inputs":[{"name":"_borrower","type":"address","internalType":"address"},{"name":"_assetId","type":"uint256","internalType":"uint256"},{"name":"_amount","type":"uint256","internalType":"uint256"},{"name":"_collateralAssetId","type":"uint256","internalType":"uint256"}],"outputs":[],"stateMutability":"nonpayable"},{"type":"function","name":"owner","inputs":[],"outputs":[{"name":"","type":"address","internalType":"address"}],"stateMutability":"view"},{"type":"function","name":"priceOracles","inputs":[{"name":"","type":"uint256","internalType":"uint256"}],"outputs":[{"name":"","type":"address","internalType":"address"}],"stateMutability":"view"},{"type":"function","name":"renounceOwnership","inputs":[],"outputs":[],"stateMutability":"nonpayable"},{"type":"function","name":"repay","inputs":[{"name":"_assetId","type":"uint256","internalType":"uint256"},{"name":"_amount","type":"uint256","internalType":"uint256"}],"outputs":[],"stateMutability":"nonpayable"},{"type":"function","name":"setPriceOracle","inputs":[{"name":"_assetId","type":"uint256","internalType":"uint256"},{"name":"_priceOracle","type":"address","internalType":"address"}],"outputs":[],"stateMutability":"nonpayable"},{"type":"function","name":"transferOwnership","inputs":[{"name":"newOwner","type":"address","internalType":"address"}],"outputs":[],"stateMutability":"nonpayable"},{"type":"function","name":"withdraw","inputs":[{"name":"_assetId","type":"uint256","internalType":"uint256"},{"name":"_amount","type":"uint256","internalType":"uint256"}],"outputs":[],"stateMutability":"nonpayable"},{"type":"event","name":"AssetAdded","inputs":[{"name":"assetId","type":"uint256","indexed":true,"internalType":"uint256"},{"name":"token","type":"address","indexed":true,"internalType":"address"}],"anonymous":false},{"type":"event","name":"Borrow","inputs":[{"name":"user","type":"address","indexed":true,"internalType":"address"},{"name":"assetId","type":"uint256","indexed":true,"internalType":"uint256"},{"name":"amount","type":"uint256","indexed":false,"internalType":"uint256"}],"anonymous":false},{"type":"event","name":"Deposit","inputs":[{"name":"user","type":"address","indexed":true,"internalType":"address"},{"name":"assetId","type":"uint256","indexed":true,"internalType":"uint256"},{"name":"amount","type":"uint256","indexed":false,"internalType":"uint256"}],"anonymous":false},{"type":"event","name":"Liquidate","inputs":[{"name":"liquidator","type":"address","indexed":true,"internalType":"address"},{"name":"borrower","type":"address","indexed":true,"internalType":"address"},{"name":"assetId","type":"uint256","indexed":true,"internalType":"uint256"},{"name":"amount","type":"uint256","indexed":false,"internalType":"uint256"},{"name":"collateralAssetId","type":"uint256","indexed":false,"internalType":"uint256"},{"name":"collateralAmount","type":"uint256","indexed":false,"internalType":"uint256"}],"anonymous":false},{"type":"event","name":"OwnershipTransferred","inputs":[{"name":"previousOwner","type":"address","indexed":true,"internalType":"address"},{"name":"newOwner","type":"address","indexed":true,"internalType":"address"}],"anonymous":false},{"type":"event","name":"Repay","inputs":[{"name":"user","type":"address","indexed":true,"internalType":"address"},{"name":"assetId","type":"uint256","indexed":true,"internalType":"uint256"},{"name":"amount","type":"uint256","indexed":false,"internalType":"uint256"}],"anonymous":false},{"type":"event","name":"Withdraw","inputs":[{"name":"user","type":"address","indexed":true,"internalType":"address"},{"name":"assetId","type":"uint256","indexed":true,"internalType":"uint256"},{"name":"amount","type":"uint256","indexed":false,"internalType":"uint256"}],"anonymous":false},{"type":"error","name":"OwnableInvalidOwner","inputs":[{"name":"owner","type":"address","internalType":"address"}]},{"type":"error","name":"OwnableUnauthorizedAccount","inputs":[{"name":"account","type":"address","internalType":"address"}]},{"type":"error","name":"ReentrancyGuardReentrantCall","inputs":[]}],"userdoc":{},"devdoc":{},"evm":{"bytecode":{"object":"6080604052348015600e575f5ffd5b5060015f553380603757604051631e4fbdf760e01b81525f600482015260240160405180910390fd5b603e816043565b506094565b600180546001600160a01b038381166001600160a01b0319831681179093556040519116919082907f8be0079c531659141344cd1fd0a4f28419497f9722a3daafe3b4186f6b6457e0905f90a35050565b6115cf806100a15f395ff3fe608060405234801561000f575f5ffd5b5060043610610127575f3560e01c80639ce625f7116100a9578063d8aed1451161006e578063d8aed145146102ca578063e2bbb158146102dd578063eafe7a74146102f0578063f2fde38b146102f9578063ff2891b71461030c575f5ffd5b80639ce625f714610223578063a0e17e1f14610236578063aaf5eb681461023e578063b47ab19e1461024d578063cf35bdd014610260575f5ffd5b80635e694cf5116100ef5780635e694cf5146101d157806366a6a4bd146101e4578063715018a6146101f75780638a1d3446146101ff5780638da5cb5b14610212575f5ffd5b80630c196a741461012b5780630ecbcdab146101615780632d239dbb1461017657806337a2eb71146101b6578063441a3e70146101be575b5f5ffd5b61014e610139366004611361565b5f908152600360208190526040909120015490565b6040519081526020015b60405180910390f35b61017461016f366004611378565b610314565b005b61019e610184366004611361565b60056020525f90815260409020546001600160a01b031681565b6040516001600160a01b039091168152602001610158565b61014e600a81565b6101746101cc366004611378565b610524565b61014e6101df366004611361565b610768565b6101746101f23660046113b3565b610807565b6101746108b8565b61017461020d3660046113db565b6108cb565b6001546001600160a01b031661019e565b61014e610231366004611411565b610d45565b61014e606e81565b61014e670de0b6b3a764000081565b61017461025b36600461142a565b610e21565b6102a061026e366004611361565b600360208190525f918252604090912080546001820154600283015492909301546001600160a01b0390911692919084565b604080516001600160a01b0390951685526020850193909352918301526060820152608001610158565b6101746102d8366004611378565b610e56565b6101746102eb366004611378565b610fe0565b61014e60045481565b610174610307366004611411565b61115c565b61014e606481565b61031c611199565b60045482106103465760405162461bcd60e51b815260040161033d90611454565b60405180910390fd5b5f81116103655760405162461bcd60e51b815260040161033d9061147b565b61036f33836111c1565b335f9081526002602090815260408083208584526003835281842060018201909352908320549092906103a39085906114c6565b5f868152600185016020526040812082905560028401805492935086929091906103ce9084906114c6565b909155505f90506103de33610d45565b9050670de0b6b3a764000081101561044e5760405162461bcd60e51b815260206004820152602d60248201527f426f72726f7720776f756c6420726573756c7420696e20756e646572636f6c6c60448201526c30ba32b930b634bd30ba34b7b760991b606482015260840161033d565b825460405163a9059cbb60e01b8152336004820152602481018790526001600160a01b039091169063a9059cbb906044016020604051808303815f875af115801561049b573d5f5f3e3d5ffd5b505050506040513d601f19601f820116820180604052508101906104bf91906114d9565b6104db5760405162461bcd60e51b815260040161033d906114f8565b604051858152869033907fe1979fe4c35e0cef342fef5668e2c8e7a7e9f5d5d1ca8fee0ac6c427fa4153af906020015b60405180910390a35050505061052060015f55565b5050565b61052c611199565b600454821061054d5760405162461bcd60e51b815260040161033d90611454565b5f811161056c5760405162461bcd60e51b815260040161033d9061147b565b61057633836111c1565b335f90815260026020908152604080832085845260038352818420928190529220548311156105de5760405162461bcd60e51b8152602060048201526014602482015273496e73756666696369656e742062616c616e636560601b604482015260640161033d565b5f6105e833610d45565b9050670de0b6b3a764000081101561065c5760405162461bcd60e51b815260206004820152603160248201527f5769746864726177616c20776f756c6420726573756c7420696e20756e64657260448201527031b7b63630ba32b930b634bd30ba34b7b760791b606482015260840161033d565b5f8581526020849052604081208054869290610679908490611521565b9250508190555083826001015f8282546106939190611521565b9091555050815460405163a9059cbb60e01b8152336004820152602481018690526001600160a01b039091169063a9059cbb906044016020604051808303815f875af11580156106e5573d5f5f3e3d5ffd5b505050506040513d601f19601f8201168201806040525081019061070991906114d9565b6107255760405162461bcd60e51b815260040161033d906114f8565b604051848152859033907ff279e6a1f5e320cca91135676d9cb6e44ca8a08c0b88342bcdb1144f6511b5689060200160405180910390a350505061052060015f55565b5f818152600560205260408120546001600160a01b031661078a57505f919050565b5f8281526005602052604090819020549051635e694cf560e01b8152600481018490526001600160a01b0390911690635e694cf590602401602060405180830381865afa1580156107dd573d5f5f3e3d5ffd5b505050506040513d601f19601f820116820180604052508101906108019190611534565b92915050565b61080f6112d1565b604080516080810182526001600160a01b038481168083525f602080850182815285870183815260608701898152600480548652600394859052898620985189546001600160a01b03191698169790971788559151600188015551600287015551940193909355905492519092917fc53536963369dbfa4c398238ebb9b09fce3943a140928bd25d3052a8a9cacdaf91a360048054905f6108af8361154b565b91905055505050565b6108c06112d1565b6108c95f6112fe565b565b6108d3611199565b600454831080156108e5575060045481105b6109015760405162461bcd60e51b815260040161033d90611454565b5f82116109205760405162461bcd60e51b815260040161033d9061147b565b336001600160a01b038516036109785760405162461bcd60e51b815260206004820152601d60248201527f43616e6e6f74206c6971756964617465206f776e20706f736974696f6e000000604482015260640161033d565b8083036109c75760405162461bcd60e51b815260206004820152601b60248201527f43616e6e6f74206c69717569646174652073616d652061737365740000000000604482015260640161033d565b6109d184846111c1565b6109db84826111c1565b6001600160a01b0384165f90815260026020908152604080832086845260039092528083208484529083209192909190610a1488610d45565b9050670de0b6b3a76400008110610a6d5760405162461bcd60e51b815260206004820152601860248201527f4163636f756e74206e6f74206c6971756964617461626c650000000000000000604482015260640161033d565b5f878152600185016020526040812054606490610a8b908290611563565b610a95919061157a565b90505f610aa2888361134f565b90505f610aae88610768565b610ab78b610768565b610ac19084611563565b610acb919061157a565b5f8981526020899052604081205491925090610ae890839061134f565b90505f610af48c610768565b610afd8b610768565b610b079084611563565b610b11919061157a565b5f8b815260208b90526040902054909150831115610b43576064610b36606e83611563565b610b40919061157a565b90505b87546040516323b872dd60e01b8152336004820152306024820152604481018390526001600160a01b03909116906323b872dd906064016020604051808303815f875af1158015610b96573d5f5f3e3d5ffd5b505050506040513d601f19601f82011682018060405250810190610bba91906114d9565b610bd65760405162461bcd60e51b815260040161033d906114f8565b865460405163a9059cbb60e01b8152336004820152602481018490526001600160a01b039091169063a9059cbb906044016020604051808303815f875af1158015610c23573d5f5f3e3d5ffd5b505050506040513d601f19601f82011682018060405250810190610c4791906114d9565b610c635760405162461bcd60e51b815260040161033d906114f8565b5f8c815260018a01602052604081208054869290610c82908490611521565b90915550505f8a815260208a9052604081208054849290610ca4908490611521565b9250508190555083886002015f828254610cbe9190611521565b9250508190555081876001015f828254610cd89190611521565b909155505060408051858152602081018c90529081018390528c906001600160a01b038f169033907fdcfb2ea46125b5c04f5311ff0585da9998aa5151b11409482cd84c8ec08e82159060600160405180910390a4505050505050505050610d3f60015f55565b50505050565b5f8080805b600454811015610dea575f8181526003602090815260408083206001600160a01b0389168452600290925282209091610d8284610768565b5f85815260208490526040902054610d9a9190611563565b90505f610da685610768565b5f868152600185016020526040902054610dc09190611563565b9050610dcc82886114c6565b9650610dd881876114c6565b95505060019093019250610d4a915050565b50805f03610dfc57505f199392505050565b80610e0f670de0b6b3a764000084611563565b610e19919061157a565b949350505050565b610e296112d1565b5f9182526005602052604090912080546001600160a01b0319166001600160a01b03909216919091179055565b610e5e611199565b6004548210610e7f5760405162461bcd60e51b815260040161033d90611454565b5f8111610e9e5760405162461bcd60e51b815260040161033d9061147b565b610ea833836111c1565b335f9081526002602090815260408083208584526003835281842060018201909352908320549092610eda858361134f565b83546040516323b872dd60e01b8152336004820152306024820152604481018390529192506001600160a01b0316906323b872dd906064016020604051808303815f875af1158015610f2e573d5f5f3e3d5ffd5b505050506040513d601f19601f82011682018060405250810190610f5291906114d9565b610f6e5760405162461bcd60e51b815260040161033d906114f8565b5f86815260018501602052604081208054839290610f8d908490611521565b9250508190555080836002015f828254610fa79190611521565b9091555050604051818152869033907f77c6871227e5d2dec8dadd5354f78453203e22e669cd0ec4c19d9a8c5edb31d09060200161050b565b610fe8611199565b60045482106110095760405162461bcd60e51b815260040161033d90611454565b5f81116110285760405162461bcd60e51b815260040161033d9061147b565b5f8281526003602052604090819020805491516323b872dd60e01b81523360048201523060248201526044810184905290916001600160a01b0316906323b872dd906064016020604051808303815f875af1158015611089573d5f5f3e3d5ffd5b505050506040513d601f19601f820116820180604052508101906110ad91906114d9565b6110c95760405162461bcd60e51b815260040161033d906114f8565b6110d333846111c1565b335f908152600260209081526040808320868452909152812080548492906110fc9084906114c6565b9250508190555081816001015f82825461111691906114c6565b9091555050604051828152839033907f90890809c654f11d6e72a28fa60149770a0d11ec6c92319d6ceb2bb0a4ea1a159060200160405180910390a35061052060015f55565b6111646112d1565b6001600160a01b03811661118d57604051631e4fbdf760e01b81525f600482015260240161033d565b611196816112fe565b50565b60025f54036111bb57604051633ee5aeb560e01b815260040160405180910390fd5b60025f55565b6001600160a01b0382165f90815260026020818152604080842085855260038352818520938101909252909220544390036111fc5750505050565b5f8381526003602081815260408084209092015460028601909152908220549091906112289043611521565b90505f670de0b6b3a7640000622014808385886001015f8b81526020019081526020015f20546112589190611563565b6112629190611563565b61126c919061157a565b611276919061157a565b905080856001015f8881526020019081526020015f205f82825461129a91906114c6565b9250508190555080846002015f8282546112b491906114c6565b9091555050505f9485525050506002016020526040902043905550565b6001546001600160a01b031633146108c95760405163118cdaa760e01b815233600482015260240161033d565b600180546001600160a01b038381166001600160a01b0319831681179093556040519116919082907f8be0079c531659141344cd1fd0a4f28419497f9722a3daafe3b4186f6b6457e0905f90a35050565b5f8282188284100282185b9392505050565b5f60208284031215611371575f5ffd5b5035919050565b5f5f60408385031215611389575f5ffd5b50508035926020909101359150565b80356001600160a01b03811681146113ae575f5ffd5b919050565b5f5f604083850312156113c4575f5ffd5b6113cd83611398565b946020939093013593505050565b5f5f5f5f608085870312156113ee575f5ffd5b6113f785611398565b966020860135965060408601359560600135945092505050565b5f60208284031215611421575f5ffd5b61135a82611398565b5f5f6040838503121561143b575f5ffd5b8235915061144b60208401611398565b90509250929050565b6020808252600d908201526c125b9d985b1a5908185cdcd95d609a1b604082015260600190565b6020808252601d908201527f416d6f756e74206d7573742062652067726561746572207468616e2030000000604082015260600190565b634e487b7160e01b5f52601160045260245ffd5b80820180821115610801576108016114b2565b5f602082840312156114e9575f5ffd5b8151801515811461135a575f5ffd5b6020808252600f908201526e151c985b9cd9995c8819985a5b1959608a1b604082015260600190565b81810381811115610801576108016114b2565b5f60208284031215611544575f5ffd5b5051919050565b5f6001820161155c5761155c6114b2565b5060010190565b8082028115828204841417610801576108016114b2565b5f8261159457634e487b7160e01b5f52601260045260245ffd5b50049056fea2646970667358221220e17b56b6291e9f9e07ce5bba67bf719a62c76ba19fcba8e2943496eef69de15864736f6c634300081b0033","opcodes":"PUSH1 0x80 PUSH1 0x40 MSTORE CALLVALUE DUP1 ISZERO PUSH1 0xE JUMPI PUSH0 PUSH0 REVERT JUMPDEST POP PUSH1 0x1 PUSH0 SSTORE CALLER DUP1 PUSH1 0x37 JUMPI PUSH1 0x40 MLOAD PUSH4 0x1E4FBDF7 PUSH1 0xE0 SHL DUP2 MSTORE PUSH0 PUSH1 0x4 DUP3 ADD MSTORE PUSH1 0x24 ADD PUSH1 0x40 MLOAD DUP1 SWAP2 SUB SWAP1 REVERT JUMPDEST PUSH1 0x3E DUP2 PUSH1 0x43 JUMP JUMPDEST POP PUSH1 0x94 JUMP JUMPDEST PUSH1 0x1 DUP1 SLOAD PUSH1 0x1 PUSH1 0x1 PUSH1 0xA0 SHL SUB DUP4 DUP2 AND PUSH1 0x1 PUSH1 0x1 PUSH1 0xA0 SHL SUB NOT DUP4 AND DUP2 OR SWAP1 SWAP4 SSTORE PUSH1 0x40 MLOAD SWAP2 AND SWAP2 SWAP1 DUP3 SWAP1 PUSH32 0x8BE0079C531659141344CD1FD0A4F28419497F9722A3DAAFE3B4186F6B6457E0 SWAP1 PUSH0 SWAP1 LOG3 POP POP JUMP JUMPDEST PUSH2 0x15CF DUP1 PUSH2 0xA1 PUSH0 CODECOPY PUSH0 RETURN INVALID PUSH1 0x80 PUSH1 0x40 MSTORE CALLVALUE DUP1 ISZERO PUSH2 0xF JUMPI PUSH0 PUSH0 REVERT JUMPDEST POP PUSH1 0x4 CALLDATASIZE LT PUSH2 0x127 JUMPI PUSH0 CALLDATALOAD PUSH1 0xE0 SHR DUP1 PUSH4 0x9CE625F7 GT PUSH2 0xA9 JUMPI DUP1 PUSH4 0xD8AED145 GT PUSH2 0x6E JUMPI DUP1 PUSH4 0xD8AED145 EQ PUSH2 0x2CA JUMPI DUP1 PUSH4 0xE2BBB158 EQ PUSH2 0x2DD JUMPI DUP1 PUSH4 0xEAFE7A74 EQ PUSH2 0x2F0 JUMPI DUP1 PUSH4 0xF2FDE38B EQ PUSH2 0x2F9 JUMPI DUP1 PUSH4 0xFF2891B7 EQ PUSH2 0x30C JUMPI PUSH0 PUSH0 REVERT JUMPDEST DUP1 PUSH4 0x9CE625F7 EQ PUSH2 0x223 JUMPI DUP1 PUSH4 0xA0E17E1F EQ PUSH2 0x236 JUMPI DUP1 PUSH4 0xAAF5EB68 EQ PUSH2 0x23E JUMPI DUP1 PUSH4 0xB47AB19E EQ PUSH2 0x24D JUMPI DUP1 PUSH4 0xCF35BDD0 EQ PUSH2 0x260 JUMPI PUSH0 PUSH0 REVERT JUMPDEST DUP1 PUSH4 0x5E694CF5 GT PUSH2 0xEF JUMPI DUP1 PUSH4 0x5E694CF5 EQ PUSH2 0x1D1 JUMPI DUP1 PUSH4 0x66A6A4BD EQ PUSH2 0x1E4 JUMPI DUP1 PUSH4 0x715018A6 EQ PUSH2 0x1F7 JUMPI DUP1 PUSH4 0x8A1D3446 EQ PUSH2 0x1FF JUMPI DUP1 PUSH4 0x8DA5CB5B EQ PUSH2 0x212 JUMPI PUSH0 PUSH0 REVERT JUMPDEST DUP1 PUSH4 0xC196A74 EQ PUSH2 0x12B JUMPI DUP1 PUSH4 0xECBCDAB EQ PUSH2 0x161 JUMPI DUP1 PUSH4 0x2D239DBB EQ PUSH2 0x176 JUMPI DUP1 PUSH4 0x37A2EB71 EQ PUSH2 0x1B6 JUMPI DUP1 PUSH4 0x441A3E70 EQ PUSH2 0x1BE JUMPI JUMPDEST PUSH0 PUSH0 REVERT JUMPDEST PUSH2 0x14E PUSH2 0x139 CALLDATASIZE PUSH1 0x4 PUSH2 0x1361 JUMP JUMPDEST PUSH0 SWAP1 DUP2 MSTORE PUSH1 0x3 PUSH1 0x20 DUP2 SWAP1 MSTORE PUSH1 0x40 SWAP1 SWAP2 KECCAK256 ADD SLOAD SWAP1 JUMP JUMPDEST PUSH1 0x40 MLOAD SWAP1 DUP2 MSTORE PUSH1 0x20 ADD JUMPDEST PUSH1 0x40 MLOAD DUP1 SWAP2 SUB SWAP1 RETURN JUMPDEST PUSH2 0x174 PUSH2 0x16F CALLDATASIZE PUSH1 0x4 PUSH2 0x1378 JUMP JUMPDEST PUSH2 0x314 JUMP JUMPDEST STOP JUMPDEST PUSH2 0x19E PUSH2 0x184 CALLDATASIZE PUSH1 0x4 PUSH2 0x1361 JUMP JUMPDEST PUSH1 0x5 PUSH1 0x20 MSTORE PUSH0 SWAP1 DUP2 MSTORE PUSH1 0x40 SWAP1 KECCAK256 SLOAD PUSH1 0x1 PUSH1 0x1 PUSH1 0xA0 SHL SUB AND DUP2 JUMP JUMPDEST PUSH1 0x40 MLOAD PUSH1 0x1 PUSH1 0x1 PUSH1 0xA0 SHL SUB SWAP1 SWAP2 AND DUP2 MSTORE PUSH1 0x20 ADD PUSH2 0x158 JUMP JUMPDEST PUSH2 0x14E PUSH1 0xA DUP2 JUMP JUMPDEST PUSH2 0x174 PUSH2 0x1CC CALLDATASIZE PUSH1 0x4 PUSH2 0x1378 JUMP JUMPDEST PUSH2 0x524 JUMP JUMPDEST PUSH2 0x14E PUSH2 0x1DF CALLDATASIZE PUSH1 0x4 PUSH2 0x1361 JUMP JUMPDEST PUSH2 0x768 JUMP JUMPDEST PUSH2 0x174 PUSH2 0x1F2 CALLDATASIZE PUSH1 0x4 PUSH2 0x13B3 JUMP JUMPDEST PUSH2 0x807 JUMP JUMPDEST PUSH2 0x174 PUSH2 0x8B8 JUMP JUMPDEST PUSH2 0x174 PUSH2 0x20D CALLDATASIZE PUSH1 0x4 PUSH2 0x13DB JUMP JUMPDEST PUSH2 0x8CB JUMP JUMPDEST PUSH1 0x1 SLOAD PUSH1 0x1 PUSH1 0x1 PUSH1 0xA0 SHL SUB AND PUSH2 0x19E JUMP JUMPDEST PUSH2 0x14E PUSH2 0x231 CALLDATASIZE PUSH1 0x4 PUSH2 0x1411 JUMP JUMPDEST PUSH2 0xD45 JUMP JUMPDEST PUSH2 0x14E PUSH1 0x6E DUP2 JUMP JUMPDEST PUSH2 0x14E PUSH8 0xDE0B6B3A7640000 DUP2 JUMP JUMPDEST PUSH2 0x174 PUSH2 0x25B CALLDATASIZE PUSH1 0x4 PUSH2 0x142A JUMP JUMPDEST PUSH2 0xE21 JUMP JUMPDEST PUSH2 0x2A0 PUSH2 0x26E CALLDATASIZE PUSH1 0x4 PUSH2 0x1361 JUMP JUMPDEST PUSH1 0x3 PUSH1 0x20 DUP2 SWAP1 MSTORE PUSH0 SWAP2 DUP3 MSTORE PUSH1 0x40 SWAP1 SWAP2 KECCAK256 DUP1 SLOAD PUSH1 0x1 DUP3 ADD SLOAD PUSH1 0x2 DUP4 ADD SLOAD SWAP3 SWAP1 SWAP4 ADD SLOAD PUSH1 0x1 PUSH1 0x1 PUSH1 0xA0 SHL SUB SWAP1 SWAP2 AND SWAP3 SWAP2 SWAP1 DUP5 JUMP JUMPDEST PUSH1 0x40 DUP1 MLOAD PUSH1 0x1 PUSH1 0x1 PUSH1 0xA0 SHL SUB SWAP1 SWAP6 AND DUP6 MSTORE PUSH1 0x20 DUP6 ADD SWAP4 SWAP1 SWAP4 MSTORE SWAP2 DUP4 ADD MSTORE PUSH1 0x60 DUP3 ADD MSTORE PUSH1 0x80 ADD PUSH2 0x158 JUMP JUMPDEST PUSH2 0x174 PUSH2 0x2D8 CALLDATASIZE PUSH1 0x4 PUSH2 0x1378 JUMP JUMPDEST PUSH2 0xE56 JUMP JUMPDEST PUSH2 0x174 PUSH2 0x2EB CALLDATASIZE PUSH1 0x4 PUSH2 0x1378 JUMP JUMPDEST PUSH2 0xFE0 JUMP JUMPDEST PUSH2 0x14E PUSH1 0x4 SLOAD DUP2 JUMP JUMPDEST PUSH2 0x174 PUSH2 0x307 CALLDATASIZE PUSH1 0x4 PUSH2 0x1411 JUMP JUMPDEST PUSH2 0x115C JUMP JUMPDEST PUSH2 0x14E PUSH1 0x64 DUP2 JUMP JUMPDEST PUSH2 0x31C PUSH2 0x1199 JUMP JUMPDEST PUSH1 0x4 SLOAD DUP3 LT PUSH2 0x346 JUMPI PUSH1 0x40 MLOAD PUSH3 0x461BCD PUSH1 0xE5 SHL DUP2 MSTORE PUSH1 0x4 ADD PUSH2 0x33D SWAP1 PUSH2 0x1454 JUMP JUMPDEST PUSH1 0x40 MLOAD DUP1 SWAP2 SUB SWAP1 REVERT JUMPDEST PUSH0 DUP2 GT PUSH2 0x365 JUMPI PUSH1 0x40 MLOAD PUSH3 0x461BCD PUSH1 0xE5 SHL DUP2 MSTORE PUSH1 0x4 ADD PUSH2 0x33D SWAP1 PUSH2 0x147B JUMP JUMPDEST PUSH2 0x36F CALLER DUP4 PUSH2 0x11C1 JUMP JUMPDEST CALLER PUSH0 SWAP1 DUP2 MSTORE PUSH1 0x2 PUSH1 0x20 SWAP1 DUP2 MSTORE PUSH1 0x40 DUP1 DUP4 KECCAK256 DUP6 DUP5 MSTORE PUSH1 0x3 DUP4 MSTORE DUP2 DUP5 KECCAK256 PUSH1 0x1 DUP3 ADD SWAP1 SWAP4 MSTORE SWAP1 DUP4 KECCAK256 SLOAD SWAP1 SWAP3 SWAP1 PUSH2 0x3A3 SWAP1 DUP6 SWAP1 PUSH2 0x14C6 JUMP JUMPDEST PUSH0 DUP7 DUP2 MSTORE PUSH1 0x1 DUP6 ADD PUSH1 0x20 MSTORE PUSH1 0x40 DUP2 KECCAK256 DUP3 SWAP1 SSTORE PUSH1 0x2 DUP5 ADD DUP1 SLOAD SWAP3 SWAP4 POP DUP7 SWAP3 SWAP1 SWAP2 SWAP1 PUSH2 0x3CE SWAP1 DUP5 SWAP1 PUSH2 0x14C6 JUMP JUMPDEST SWAP1 SWAP2 SSTORE POP PUSH0 SWAP1 POP PUSH2 0x3DE CALLER PUSH2 0xD45 JUMP JUMPDEST SWAP1 POP PUSH8 0xDE0B6B3A7640000 DUP2 LT ISZERO PUSH2 0x44E JUMPI PUSH1 0x40 MLOAD PUSH3 0x461BCD PUSH1 0xE5 SHL DUP2 MSTORE PUSH1 0x20 PUSH1 0x4 DUP3 ADD MSTORE PUSH1 0x2D PUSH1 0x24 DUP3 ADD MSTORE PUSH32 0x426F72726F7720776F756C6420726573756C7420696E20756E646572636F6C6C PUSH1 0x44 DUP3 ADD MSTORE PUSH13 0x30BA32B930B634BD30BA34B7B7 PUSH1 0x99 SHL PUSH1 0x64 DUP3 ADD MSTORE PUSH1 0x84 ADD PUSH2 0x33D JUMP JUMPDEST DUP3 SLOAD PUSH1 0x40 MLOAD PUSH4 0xA9059CBB PUSH1 0xE0 SHL DUP2 MSTORE CALLER PUSH1 0x4 DUP3 ADD MSTORE PUSH1 0x24 DUP2 ADD DUP8 SWAP1 MSTORE PUSH1 0x1 PUSH1 0x1 PUSH1 0xA0 SHL SUB SWAP1 SWAP2 AND SWAP1 PUSH4 0xA9059CBB SWAP1 PUSH1 0x44 ADD PUSH1 0x20 PUSH1 0x40 MLOAD DUP1 DUP4 SUB DUP2 PUSH0 DUP8 GAS CALL ISZERO DUP1 ISZERO PUSH2 0x49B JUMPI RETURNDATASIZE PUSH0 PUSH0 RETURNDATACOPY RETURNDATASIZE PUSH0 REVERT JUMPDEST POP POP POP POP PUSH1 0x40 MLOAD RETURNDATASIZE PUSH1 0x1F NOT PUSH1 0x1F DUP3 ADD AND DUP3 ADD DUP1 PUSH1 0x40 MSTORE POP DUP2 ADD SWAP1 PUSH2 0x4BF SWAP2 SWAP1 PUSH2 0x14D9 JUMP JUMPDEST PUSH2 0x4DB JUMPI PUSH1 0x40 MLOAD PUSH3 0x461BCD PUSH1 0xE5 SHL DUP2 MSTORE PUSH1 0x4 ADD PUSH2 0x33D SWAP1 PUSH2 0x14F8 JUMP JUMPDEST PUSH1 0x40 MLOAD DUP6 DUP2 MSTORE DUP7 SWAP1 CALLER SWAP1 PUSH32 0xE1979FE4C35E0CEF342FEF5668E2C8E7A7E9F5D5D1CA8FEE0AC6C427FA4153AF SWAP1 PUSH1 0x20 ADD JUMPDEST PUSH1 0x40 MLOAD DUP1 SWAP2 SUB SWAP1 LOG3 POP POP POP POP PUSH2 0x520 PUSH1 0x1 PUSH0 SSTORE JUMP JUMPDEST POP POP JUMP JUMPDEST PUSH2 0x52C PUSH2 0x1199 JUMP JUMPDEST PUSH1 0x4 SLOAD DUP3 LT PUSH2 0x54D JUMPI PUSH1 0x40 MLOAD PUSH3 0x461BCD PUSH1 0xE5 SHL DUP2 MSTORE PUSH1 0x4 ADD PUSH2 0x33D SWAP1 PUSH2 0x1454 JUMP JUMPDEST PUSH0 DUP2 GT PUSH2 0x56C JUMPI PUSH1 0x40 MLOAD PUSH3 0x461BCD PUSH1 0xE5 SHL DUP2 MSTORE PUSH1 0x4 ADD PUSH2 0x33D SWAP1 PUSH2 0x147B JUMP JUMPDEST PUSH2 0x576 CALLER DUP4 PUSH2 0x11C1 JUMP JUMPDEST CALLER PUSH0 SWAP1 DUP2 MSTORE PUSH1 0x2 PUSH1 0x20 SWAP1 DUP2 MSTORE PUSH1 0x40 DUP1 DUP4 KECCAK256 DUP6 DUP5 MSTORE PUSH1 0x3 DUP4 MSTORE DUP2 DUP5 KECCAK256 SWAP3 DUP2 SWAP1 MSTORE SWAP3 KECCAK256 SLOAD DUP4 GT ISZERO PUSH2 0x5DE JUMPI PUSH1 0x40 MLOAD PUSH3 0x461BCD PUSH1 0xE5 SHL DUP2 MSTORE PUSH1 0x20 PUSH1 0x4 DUP3 ADD MSTORE PUSH1 0x14 PUSH1 0x24 DUP3 ADD MSTORE PUSH20 0x496E73756666696369656E742062616C616E6365 PUSH1 0x60 SHL PUSH1 0x44 DUP3 ADD MSTORE PUSH1 0x64 ADD PUSH2 0x33D JUMP JUMPDEST PUSH0 PUSH2 0x5E8 CALLER PUSH2 0xD45 JUMP JUMPDEST SWAP1 POP PUSH8 0xDE0B6B3A7640000 DUP2 LT ISZERO PUSH2 0x65C JUMPI PUSH1 0x40 MLOAD PUSH3 0x461BCD PUSH1 0xE5 SHL DUP2 MSTORE PUSH1 0x20 PUSH1 0x4 DUP3 ADD MSTORE PUSH1 0x31 PUSH1 0x24 DUP3 ADD MSTORE PUSH32 0x5769746864726177616C20776F756C6420726573756C7420696E20756E646572 PUSH1 0x44 DUP3 ADD MSTORE PUSH17 0x31B7B63630BA32B930B634BD30BA34B7B7 PUSH1 0x79 SHL PUSH1 0x64 DUP3 ADD MSTORE PUSH1 0x84 ADD PUSH2 0x33D JUMP JUMPDEST PUSH0 DUP6 DUP2 MSTORE PUSH1 0x20 DUP5 SWAP1 MSTORE PUSH1 0x40 DUP2 KECCAK256 DUP1 SLOAD DUP7 SWAP3 SWAP1 PUSH2 0x679 SWAP1 DUP5 SWAP1 PUSH2 0x1521 JUMP JUMPDEST SWAP3 POP POP DUP2 SWAP1 SSTORE POP DUP4 DUP3 PUSH1 0x1 ADD PUSH0 DUP3 DUP3 SLOAD PUSH2 0x693 SWAP2 SWAP1 PUSH2 0x1521 JUMP JUMPDEST SWAP1 SWAP2 SSTORE POP POP DUP2 SLOAD PUSH1 0x40 MLOAD PUSH4 0xA9059CBB PUSH1 0xE0 SHL DUP2 MSTORE CALLER PUSH1 0x4 DUP3 ADD MSTORE PUSH1 0x24 DUP2 ADD DUP7 SWAP1 MSTORE PUSH1 0x1 PUSH1 0x1 PUSH1 0xA0 SHL SUB SWAP1 SWAP2 AND SWAP1 PUSH4 0xA9059CBB SWAP1 PUSH1 0x44 ADD PUSH1 0x20 PUSH1 0x40 MLOAD DUP1 DUP4 SUB DUP2 PUSH0 DUP8 GAS CALL ISZERO DUP1 ISZERO PUSH2 0x6E5 JUMPI RETURNDATASIZE PUSH0 PUSH0 RETURNDATACOPY RETURNDATASIZE PUSH0 REVERT JUMPDEST POP POP POP POP PUSH1 0x40 MLOAD RETURNDATASIZE PUSH1 0x1F NOT PUSH1 0x1F DUP3 ADD AND DUP3 ADD DUP1 PUSH1 0x40 MSTORE POP DUP2 ADD SWAP1 PUSH2 0x709 SWAP2 SWAP1 PUSH2 0x14D9 JUMP JUMPDEST PUSH2 0x725 JUMPI PUSH1 0x40 MLOAD PUSH3 0x461BCD PUSH1 0xE5 SHL DUP2 MSTORE PUSH1 0x4 ADD PUSH2 0x33D SWAP1 PUSH2 0x14F8 JUMP JUMPDEST PUSH1 0x40 MLOAD DUP5 DUP2 MSTORE DUP6 SWAP1 CALLER SWAP1 PUSH32 0xF279E6A1F5E320CCA91135676D9CB6E44CA8A08C0B88342BCDB1144F6511B568 SWAP1 PUSH1 0x20 ADD PUSH1 0x40 MLOAD DUP1 SWAP2 SUB SWAP1 LOG3 POP POP POP PUSH2 0x520 PUSH1 0x1 PUSH0 SSTORE JUMP JUMPDEST PUSH0 DUP2 DUP2 MSTORE PUSH1 0x5 PUSH1 0x20 MSTORE PUSH1 0x40 DUP2 KECCAK256 SLOAD PUSH1 0x1 PUSH1 0x1 PUSH1 0xA0 SHL SUB AND PUSH2 0x78A JUMPI POP PUSH0 SWAP2 SWAP1 POP JUMP JUMPDEST PUSH0 DUP3 DUP2 MSTORE PUSH1 0x5 PUSH1 0x20 MSTORE PUSH1 0x40 SWAP1 DUP2 SWAP1 KECCAK256 SLOAD SWAP1 MLOAD PUSH4 0x5E694CF5 PUSH1 0xE0 SHL DUP2 MSTORE PUSH1 0x4 DUP2 ADD DUP5 SWAP1 MSTORE PUSH1 0x1 PUSH1 0x1 PUSH1 0xA0 SHL SUB SWAP1 SWAP2 AND SWAP1 PUSH4 0x5E694CF5 SWAP1 PUSH1 0x24 ADD PUSH1 0x20 PUSH1 0x40 MLOAD DUP1 DUP4 SUB DUP2 DUP7 GAS STATICCALL ISZERO DUP1 ISZERO PUSH2 0x7DD JUMPI RETURNDATASIZE PUSH0 PUSH0 RETURNDATACOPY RETURNDATASIZE PUSH0 REVERT JUMPDEST POP POP POP POP PUSH1 0x40 MLOAD RETURNDATASIZE PUSH1 0x1F NOT PUSH1 0x1F DUP3 ADD AND DUP3 ADD DUP1 PUSH1 0x40 MSTORE POP DUP2 ADD SWAP1 PUSH2 0x801 SWAP2 SWAP1 PUSH2 0x1534 JUMP JUMPDEST SWAP3 SWAP2 POP POP JUMP JUMPDEST PUSH2 0x80F PUSH2 0x12D1 JUMP JUMPDEST PUSH1 0x40 DUP1 MLOAD PUSH1 0x80 DUP2 ADD DUP3 MSTORE PUSH1 0x1 PUSH1 0x1 PUSH1 0xA0 SHL SUB DUP5 DUP2 AND DUP1 DUP4 MSTORE PUSH0 PUSH1 0x20 DUP1 DUP6 ADD DUP3 DUP2 MSTORE DUP6 DUP8 ADD DUP4 DUP2 MSTORE PUSH1 0x60 DUP8 ADD DUP10 DUP2 MSTORE PUSH1 0x4 DUP1 SLOAD DUP7 MSTORE PUSH1 0x3 SWAP5 DUP6 SWAP1 MSTORE DUP10 DUP7 KECCAK256 SWAP9 MLOAD DUP10 SLOAD PUSH1 0x1 PUSH1 0x1 PUSH1 0xA0 SHL SUB NOT AND SWAP9 AND SWAP8 SWAP1 SWAP8 OR DUP9 SSTORE SWAP2 MLOAD PUSH1 0x1 DUP9 ADD SSTORE MLOAD PUSH1 0x2 DUP8 ADD SSTORE MLOAD SWAP5 ADD SWAP4 SWAP1 SWAP4 SSTORE SWAP1 SLOAD SWAP3 MLOAD SWAP1 SWAP3 SWAP2 PUSH32 0xC53536963369DBFA4C398238EBB9B09FCE3943A140928BD25D3052A8A9CACDAF SWAP2 LOG3 PUSH1 0x4 DUP1 SLOAD SWAP1 PUSH0 PUSH2 0x8AF DUP4 PUSH2 0x154B JUMP JUMPDEST SWAP2 SWAP1 POP SSTORE POP POP POP JUMP JUMPDEST PUSH2 0x8C0 PUSH2 0x12D1 JUMP JUMPDEST PUSH2 0x8C9 PUSH0 PUSH2 0x12FE JUMP JUMPDEST JUMP JUMPDEST PUSH2 0x8D3 PUSH2 0x1199 JUMP JUMPDEST PUSH1 0x4 SLOAD DUP4 LT DUP1 ISZERO PUSH2 0x8E5 JUMPI POP PUSH1 0x4 SLOAD DUP2 LT JUMPDEST PUSH2 0x901 JUMPI PUSH1 0x40 MLOAD PUSH3 0x461BCD PUSH1 0xE5 SHL DUP2 MSTORE PUSH1 0x4 ADD PUSH2 0x33D SWAP1 PUSH2 0x1454 JUMP JUMPDEST PUSH0 DUP3 GT PUSH2 0x920 JUMPI PUSH1 0x40 MLOAD PUSH3 0x461BCD PUSH1 0xE5 SHL DUP2 MSTORE PUSH1 0x4 ADD PUSH2 0x33D SWAP1 PUSH2 0x147B JUMP JUMPDEST CALLER PUSH1 0x1 PUSH1 0x1 PUSH1 0xA0 SHL SUB DUP6 AND SUB PUSH2 0x978 JUMPI PUSH1 0x40 MLOAD PUSH3 0x461BCD PUSH1 0xE5 SHL DUP2 MSTORE PUSH1 0x20 PUSH1 0x4 DUP3 ADD MSTORE PUSH1 0x1D PUSH1 0x24 DUP3 ADD MSTORE PUSH32 0x43616E6E6F74206C6971756964617465206F776E20706F736974696F6E000000 PUSH1 0x44 DUP3 ADD MSTORE PUSH1 0x64 ADD PUSH2 0x33D JUMP JUMPDEST DUP1 DUP4 SUB PUSH2 0x9C7 JUMPI PUSH1 0x40 MLOAD PUSH3 0x461BCD PUSH1 0xE5 SHL DUP2 MSTORE PUSH1 0x20 PUSH1 0x4 DUP3 ADD MSTORE PUSH1 0x1B PUSH1 0x24 DUP3 ADD MSTORE PUSH32 0x43616E6E6F74206C69717569646174652073616D652061737365740000000000 PUSH1 0x44 DUP3 ADD MSTORE PUSH1 0x64 ADD PUSH2 0x33D JUMP JUMPDEST PUSH2 0x9D1 DUP5 DUP5 PUSH2 0x11C1 JUMP JUMPDEST PUSH2 0x9DB DUP5 DUP3 PUSH2 0x11C1 JUMP JUMPDEST PUSH1 0x1 PUSH1 0x1 PUSH1 0xA0 SHL SUB DUP5 AND PUSH0 SWAP1 DUP2 MSTORE PUSH1 0x2 PUSH1 0x20 SWAP1 DUP2 MSTORE PUSH1 0x40 DUP1 DUP4 KECCAK256 DUP7 DUP5 MSTORE PUSH1 0x3 SWAP1 SWAP3 MSTORE DUP1 DUP4 KECCAK256 DUP5 DUP5 MSTORE SWAP1 DUP4 KECCAK256 SWAP2 SWAP3 SWAP1 SWAP2 SWAP1 PUSH2 0xA14 DUP9 PUSH2 0xD45 JUMP JUMPDEST SWAP1 POP PUSH8 0xDE0B6B3A7640000 DUP2 LT PUSH2 0xA6D JUMPI PUSH1 0x40 MLOAD PUSH3 0x461BCD PUSH1 0xE5 SHL DUP2 MSTORE PUSH1 0x20 PUSH1 0x4 DUP3 ADD MSTORE PUSH1 0x18 PUSH1 0x24 DUP3 ADD MSTORE PUSH32 0x4163636F756E74206E6F74206C6971756964617461626C650000000000000000 PUSH1 0x44 DUP3 ADD MSTORE PUSH1 0x64 ADD PUSH2 0x33D JUMP JUMPDEST PUSH0 DUP8 DUP2 MSTORE PUSH1 0x1 DUP6 ADD PUSH1 0x20 MSTORE PUSH1 0x40 DUP2 KECCAK256 SLOAD PUSH1 0x64 SWAP1 PUSH2 0xA8B SWAP1 DUP3 SWAP1 PUSH2 0x1563 JUMP JUMPDEST PUSH2 0xA95 SWAP2 SWAP1 PUSH2 0x157A JUMP JUMPDEST SWAP1 POP PUSH0 PUSH2 0xAA2 DUP9 DUP4 PUSH2 0x134F JUMP JUMPDEST SWAP1 POP PUSH0 PUSH2 0xAAE DUP9 PUSH2 0x768 JUMP JUMPDEST PUSH2 0xAB7 DUP12 PUSH2 0x768 JUMP JUMPDEST PUSH2 0xAC1 SWAP1 DUP5 PUSH2 0x1563 JUMP JUMPDEST PUSH2 0xACB SWAP2 SWAP1 PUSH2 0x157A JUMP JUMPDEST PUSH0 DUP10 DUP2 MSTORE PUSH1 0x20 DUP10 SWAP1 MSTORE PUSH1 0x40 DUP2 KECCAK256 SLOAD SWAP2 SWAP3 POP SWAP1 PUSH2 0xAE8 SWAP1 DUP4 SWAP1 PUSH2 0x134F JUMP JUMPDEST SWAP1 POP PUSH0 PUSH2 0xAF4 DUP13 PUSH2 0x768 JUMP JUMPDEST PUSH2 0xAFD DUP12 PUSH2 0x768 JUMP JUMPDEST PUSH2 0xB07 SWAP1 DUP5 PUSH2 0x1563 JUMP JUMPDEST PUSH2 0xB11 SWAP2 SWAP1 PUSH2 0x157A JUMP JUMPDEST PUSH0 DUP12 DUP2 MSTORE PUSH1 0x20 DUP12 SWAP1 MSTORE PUSH1 0x40 SWAP1 KECCAK256 SLOAD SWAP1 SWAP2 POP DUP4 GT ISZERO PUSH2 0xB43 JUMPI PUSH1 0x64 PUSH2 0xB36 PUSH1 0x6E DUP4 PUSH2 0x1563 JUMP JUMPDEST PUSH2 0xB40 SWAP2 SWAP1 PUSH2 0x157A JUMP JUMPDEST SWAP1 POP JUMPDEST DUP8 SLOAD PUSH1 0x40 MLOAD PUSH4 0x23B872DD PUSH1 0xE0 SHL DUP2 MSTORE CALLER PUSH1 0x4 DUP3 ADD MSTORE ADDRESS PUSH1 0x24 DUP3 ADD MSTORE PUSH1 0x44 DUP2 ADD DUP4 SWAP1 MSTORE PUSH1 0x1 PUSH1 0x1 PUSH1 0xA0 SHL SUB SWAP1 SWAP2 AND SWAP1 PUSH4 0x23B872DD SWAP1 PUSH1 0x64 ADD PUSH1 0x20 PUSH1 0x40 MLOAD DUP1 DUP4 SUB DUP2 PUSH0 DUP8 GAS CALL ISZERO DUP1 ISZERO PUSH2 0xB96 JUMPI RETURNDATASIZE PUSH0 PUSH0 RETURNDATACOPY RETURNDATASIZE PUSH0 REVERT JUMPDEST POP POP POP POP PUSH1 0x40 MLOAD RETURNDATASIZE PUSH1 0x1F NOT PUSH1 0x1F DUP3 ADD AND DUP3 ADD DUP1 PUSH1 0x40 MSTORE POP DUP2 ADD SWAP1 PUSH2 0xBBA SWAP2 SWAP1 PUSH2 0x14D9 JUMP JUMPDEST PUSH2 0xBD6 JUMPI PUSH1 0x40 MLOAD PUSH3 0x461BCD PUSH1 0xE5 SHL DUP2 MSTORE PUSH1 0x4 ADD PUSH2 0x33D SWAP1 PUSH2 0x14F8 JUMP JUMPDEST DUP7 SLOAD PUSH1 0x40 MLOAD PUSH4 0xA9059CBB PUSH1 0xE0 SHL DUP2 MSTORE CALLER PUSH1 0x4 DUP3 ADD MSTORE PUSH1 0x24 DUP2 ADD DUP5 SWAP1 MSTORE PUSH1 0x1 PUSH1 0x1 PUSH1 0xA0 SHL SUB SWAP1 SWAP2 AND SWAP1 PUSH4 0xA9059CBB SWAP1 PUSH1 0x44 ADD PUSH1 0x20 PUSH1 0x40 MLOAD DUP1 DUP4 SUB DUP2 PUSH0 DUP8 GAS CALL ISZERO DUP1 ISZERO PUSH2 0xC23 JUMPI RETURNDATASIZE PUSH0 PUSH0 RETURNDATACOPY RETURNDATASIZE PUSH0 REVERT JUMPDEST POP POP POP POP PUSH1 0x40 MLOAD RETURNDATASIZE PUSH1 0x1F NOT PUSH1 0x1F DUP3 ADD AND DUP3 ADD DUP1 PUSH1 0x40 MSTORE POP DUP2 ADD SWAP1 PUSH2 0xC47 SWAP2 SWAP1 PUSH2 0x14D9 JUMP JUMPDEST PUSH2 0xC63 JUMPI PUSH1 0x40 MLOAD PUSH3 0x461BCD PUSH1 0xE5 SHL DUP2 MSTORE PUSH1 0x4 ADD PUSH2 0x33D SWAP1 PUSH2 0x14F8 JUMP JUMPDEST PUSH0 DUP13 DUP2 MSTORE PUSH1 0x1 DUP11 ADD PUSH1 0x20 MSTORE PUSH1 0x40 DUP2 KECCAK256 DUP1 SLOAD DUP7 SWAP3 SWAP1 PUSH2 0xC82 SWAP1 DUP5 SWAP1 PUSH2 0x1521 JUMP JUMPDEST SWAP1 SWAP2 SSTORE POP POP PUSH0 DUP11 DUP2 MSTORE PUSH1 0x20 DUP11 SWAP1 MSTORE PUSH1 0x40 DUP2 KECCAK256 DUP1 SLOAD DUP5 SWAP3 SWAP1 PUSH2 0xCA4 SWAP1 DUP5 SWAP1 PUSH2 0x1521 JUMP JUMPDEST SWAP3 POP POP DUP2 SWAP1 SSTORE POP DUP4 DUP9 PUSH1 0x2 ADD PUSH0 DUP3 DUP3 SLOAD PUSH2 0xCBE SWAP2 SWAP1 PUSH2 0x1521 JUMP JUMPDEST SWAP3 POP POP DUP2 SWAP1 SSTORE POP DUP2 DUP8 PUSH1 0x1 ADD PUSH0 DUP3 DUP3 SLOAD PUSH2 0xCD8 SWAP2 SWAP1 PUSH2 0x1521 JUMP JUMPDEST SWAP1 SWAP2 SSTORE POP POP PUSH1 0x40 DUP1 MLOAD DUP6 DUP2 MSTORE PUSH1 0x20 DUP2 ADD DUP13 SWAP1 MSTORE SWAP1 DUP2 ADD DUP4 SWAP1 MSTORE DUP13 SWAP1 PUSH1 0x1 PUSH1 0x1 PUSH1 0xA0 SHL SUB DUP16 AND SWAP1 CALLER SWAP1 PUSH32 0xDCFB2EA46125B5C04F5311FF0585DA9998AA5151B11409482CD84C8EC08E8215 SWAP1 PUSH1 0x60 ADD PUSH1 0x40 MLOAD DUP1 SWAP2 SUB SWAP1 LOG4 POP POP POP POP POP POP POP POP POP PUSH2 0xD3F PUSH1 0x1 PUSH0 SSTORE JUMP JUMPDEST POP POP POP POP JUMP JUMPDEST PUSH0 DUP1 DUP1 DUP1 JUMPDEST PUSH1 0x4 SLOAD DUP2 LT ISZERO PUSH2 0xDEA JUMPI PUSH0 DUP2 DUP2 MSTORE PUSH1 0x3 PUSH1 0x20 SWAP1 DUP2 MSTORE PUSH1 0x40 DUP1 DUP4 KECCAK256 PUSH1 0x1 PUSH1 0x1 PUSH1 0xA0 SHL SUB DUP10 AND DUP5 MSTORE PUSH1 0x2 SWAP1 SWAP3 MSTORE DUP3 KECCAK256 SWAP1 SWAP2 PUSH2 0xD82 DUP5 PUSH2 0x768 JUMP JUMPDEST PUSH0 DUP6 DUP2 MSTORE PUSH1 0x20 DUP5 SWAP1 MSTORE PUSH1 0x40 SWAP1 KECCAK256 SLOAD PUSH2 0xD9A SWAP2 SWAP1 PUSH2 0x1563 JUMP JUMPDEST SWAP1 POP PUSH0 PUSH2 0xDA6 DUP6 PUSH2 0x768 JUMP JUMPDEST PUSH0 DUP7 DUP2 MSTORE PUSH1 0x1 DUP6 ADD PUSH1 0x20 MSTORE PUSH1 0x40 SWAP1 KECCAK256 SLOAD PUSH2 0xDC0 SWAP2 SWAP1 PUSH2 0x1563 JUMP JUMPDEST SWAP1 POP PUSH2 0xDCC DUP3 DUP9 PUSH2 0x14C6 JUMP JUMPDEST SWAP7 POP PUSH2 0xDD8 DUP2 DUP8 PUSH2 0x14C6 JUMP JUMPDEST SWAP6 POP POP PUSH1 0x1 SWAP1 SWAP4 ADD SWAP3 POP PUSH2 0xD4A SWAP2 POP POP JUMP JUMPDEST POP DUP1 PUSH0 SUB PUSH2 0xDFC JUMPI POP PUSH0 NOT SWAP4 SWAP3 POP POP POP JUMP JUMPDEST DUP1 PUSH2 0xE0F PUSH8 0xDE0B6B3A7640000 DUP5 PUSH2 0x1563 JUMP JUMPDEST PUSH2 0xE19 SWAP2 SWAP1 PUSH2 0x157A JUMP JUMPDEST SWAP5 SWAP4 POP POP POP POP JUMP JUMPDEST PUSH2 0xE29 PUSH2 0x12D1 JUMP JUMPDEST PUSH0 SWAP2 DUP3 MSTORE PUSH1 0x5 PUSH1 0x20 MSTORE PUSH1 0x40 SWAP1 SWAP2 KECCAK256 DUP1 SLOAD PUSH1 0x1 PUSH1 0x1 PUSH1 0xA0 SHL SUB NOT AND PUSH1 0x1 PUSH1 0x1 PUSH1 0xA0 SHL SUB SWAP1 SWAP3 AND SWAP2 SWAP1 SWAP2 OR SWAP1 SSTORE JUMP JUMPDEST PUSH2 0xE5E PUSH2 0x1199 JUMP JUMPDEST PUSH1 0x4 SLOAD DUP3 LT PUSH2 0xE7F JUMPI PUSH1 0x40 MLOAD PUSH3 0x461BCD PUSH1 0xE5 SHL DUP2 MSTORE PUSH1 0x4 ADD PUSH2 0x33D SWAP1 PUSH2 0x1454 JUMP JUMPDEST PUSH0 DUP2 GT PUSH2 0xE9E JUMPI PUSH1 0x40 MLOAD PUSH3 0x461BCD PUSH1 0xE5 SHL DUP2 MSTORE PUSH1 0x4 ADD PUSH2 0x33D SWAP1 PUSH2 0x147B JUMP JUMPDEST PUSH2 0xEA8 CALLER DUP4 PUSH2 0x11C1 JUMP JUMPDEST CALLER PUSH0 SWAP1 DUP2 MSTORE PUSH1 0x2 PUSH1 0x20 SWAP1 DUP2 MSTORE PUSH1 0x40 DUP1 DUP4 KECCAK256 DUP6 DUP5 MSTORE PUSH1 0x3 DUP4 MSTORE DUP2 DUP5 KECCAK256 PUSH1 0x1 DUP3 ADD SWAP1 SWAP4 MSTORE SWAP1 DUP4 KECCAK256 SLOAD SWAP1 SWAP3 PUSH2 0xEDA DUP6 DUP4 PUSH2 0x134F JUMP JUMPDEST DUP4 SLOAD PUSH1 0x40 MLOAD PUSH4 0x23B872DD PUSH1 0xE0 SHL DUP2 MSTORE CALLER PUSH1 0x4 DUP3 ADD MSTORE ADDRESS PUSH1 0x24 DUP3 ADD MSTORE PUSH1 0x44 DUP2 ADD DUP4 SWAP1 MSTORE SWAP2 SWAP3 POP PUSH1 0x1 PUSH1 0x1 PUSH1 0xA0 SHL SUB AND SWAP1 PUSH4 0x23B872DD SWAP1 PUSH1 0x64 ADD PUSH1 0x20 PUSH1 0x40 MLOAD DUP1 DUP4 SUB DUP2 PUSH0 DUP8 GAS CALL ISZERO DUP1 ISZERO PUSH2 0xF2E JUMPI RETURNDATASIZE PUSH0 PUSH0 RETURNDATACOPY RETURNDATASIZE PUSH0 REVERT JUMPDEST POP POP POP POP PUSH1 0x40 MLOAD RETURNDATASIZE PUSH1 0x1F NOT PUSH1 0x1F DUP3 ADD AND DUP3 ADD DUP1 PUSH1 0x40 MSTORE POP DUP2 ADD SWAP1 PUSH2 0xF52 SWAP2 SWAP1 PUSH2 0x14D9 JUMP JUMPDEST PUSH2 0xF6E JUMPI PUSH1 0x40 MLOAD PUSH3 0x461BCD PUSH1 0xE5 SHL DUP2 MSTORE PUSH1 0x4 ADD PUSH2 0x33D SWAP1 PUSH2 0x14F8 JUMP JUMPDEST PUSH0 DUP7 DUP2 MSTORE PUSH1 0x1 DUP6 ADD PUSH1 0x20 MSTORE PUSH1 0x40 DUP2 KECCAK256 DUP1 SLOAD DUP4 SWAP3 SWAP1 PUSH2 0xF8D SWAP1 DUP5 SWAP1 PUSH2 0x1521 JUMP JUMPDEST SWAP3 POP POP DUP2 SWAP1 SSTORE POP DUP1 DUP4 PUSH1 0x2 ADD PUSH0 DUP3 DUP3 SLOAD PUSH2 0xFA7 SWAP2 SWAP1 PUSH2 0x1521 JUMP JUMPDEST SWAP1 SWAP2 SSTORE POP POP PUSH1 0x40 MLOAD DUP2 DUP2 MSTORE DUP7 SWAP1 CALLER SWAP1 PUSH32 0x77C6871227E5D2DEC8DADD5354F78453203E22E669CD0EC4C19D9A8C5EDB31D0 SWAP1 PUSH1 0x20 ADD PUSH2 0x50B JUMP JUMPDEST PUSH2 0xFE8 PUSH2 0x1199 JUMP JUMPDEST PUSH1 0x4 SLOAD DUP3 LT PUSH2 0x1009 JUMPI PUSH1 0x40 MLOAD PUSH3 0x461BCD PUSH1 0xE5 SHL DUP2 MSTORE PUSH1 0x4 ADD PUSH2 0x33D SWAP1 PUSH2 0x1454 JUMP JUMPDEST PUSH0 DUP2 GT PUSH2 0x1028 JUMPI PUSH1 0x40 MLOAD PUSH3 0x461BCD PUSH1 0xE5 SHL DUP2 MSTORE PUSH1 0x4 ADD PUSH2 0x33D SWAP1 PUSH2 0x147B JUMP JUMPDEST PUSH0 DUP3 DUP2 MSTORE PUSH1 0x3 PUSH1 0x20 MSTORE PUSH1 0x40 SWAP1 DUP2 SWAP1 KECCAK256 DUP1 SLOAD SWAP2 MLOAD PUSH4 0x23B872DD PUSH1 0xE0 SHL DUP2 MSTORE CALLER PUSH1 0x4 DUP3 ADD MSTORE ADDRESS PUSH1 0x24 DUP3 ADD MSTORE PUSH1 0x44 DUP2 ADD DUP5 SWAP1 MSTORE SWAP1 SWAP2 PUSH1 0x1 PUSH1 0x1 PUSH1 0xA0 SHL SUB AND SWAP1 PUSH4 0x23B872DD SWAP1 PUSH1 0x64 ADD PUSH1 0x20 PUSH1 0x40 MLOAD DUP1 DUP4 SUB DUP2 PUSH0 DUP8 GAS CALL ISZERO DUP1 ISZERO PUSH2 0x1089 JUMPI RETURNDATASIZE PUSH0 PUSH0 RETURNDATACOPY RETURNDATASIZE PUSH0 REVERT JUMPDEST POP POP POP POP PUSH1 0x40 MLOAD RETURNDATASIZE PUSH1 0x1F NOT PUSH1 0x1F DUP3 ADD AND DUP3 ADD DUP1 PUSH1 0x40 MSTORE POP DUP2 ADD SWAP1 PUSH2 0x10AD SWAP2 SWAP1 PUSH2 0x14D9 JUMP JUMPDEST PUSH2 0x10C9 JUMPI PUSH1 0x40 MLOAD PUSH3 0x461BCD PUSH1 0xE5 SHL DUP2 MSTORE PUSH1 0x4 ADD PUSH2 0x33D SWAP1 PUSH2 0x14F8 JUMP JUMPDEST PUSH2 0x10D3 CALLER DUP5 PUSH2 0x11C1 JUMP JUMPDEST CALLER PUSH0 SWAP1 DUP2 MSTORE PUSH1 0x2 PUSH1 0x20 SWAP1 DUP2 MSTORE PUSH1 0x40 DUP1 DUP4 KECCAK256 DUP7 DUP5 MSTORE SWAP1 SWAP2 MSTORE DUP2 KECCAK256 DUP1 SLOAD DUP5 SWAP3 SWAP1 PUSH2 0x10FC SWAP1 DUP5 SWAP1 PUSH2 0x14C6 JUMP JUMPDEST SWAP3 POP POP DUP2 SWAP1 SSTORE POP DUP2 DUP2 PUSH1 0x1 ADD PUSH0 DUP3 DUP3 SLOAD PUSH2 0x1116 SWAP2 SWAP1 PUSH2 0x14C6 JUMP JUMPDEST SWAP1 SWAP2 SSTORE POP POP PUSH1 0x40 MLOAD DUP3 DUP2 MSTORE DUP4 SWAP1 CALLER SWAP1 PUSH32 0x90890809C654F11D6E72A28FA60149770A0D11EC6C92319D6CEB2BB0A4EA1A15 SWAP1 PUSH1 0x20 ADD PUSH1 0x40 MLOAD DUP1 SWAP2 SUB SWAP1 LOG3 POP PUSH2 0x520 PUSH1 0x1 PUSH0 SSTORE JUMP JUMPDEST PUSH2 0x1164 PUSH2 0x12D1 JUMP JUMPDEST PUSH1 0x1 PUSH1 0x1 PUSH1 0xA0 SHL SUB DUP2 AND PUSH2 0x118D JUMPI PUSH1 0x40 MLOAD PUSH4 0x1E4FBDF7 PUSH1 0xE0 SHL DUP2 MSTORE PUSH0 PUSH1 0x4 DUP3 ADD MSTORE PUSH1 0x24 ADD PUSH2 0x33D JUMP JUMPDEST PUSH2 0x1196 DUP2 PUSH2 0x12FE JUMP JUMPDEST POP JUMP JUMPDEST PUSH1 0x2 PUSH0 SLOAD SUB PUSH2 0x11BB JUMPI PUSH1 0x40 MLOAD PUSH4 0x3EE5AEB5 PUSH1 0xE0 SHL DUP2 MSTORE PUSH1 0x4 ADD PUSH1 0x40 MLOAD DUP1 SWAP2 SUB SWAP1 REVERT JUMPDEST PUSH1 0x2 PUSH0 SSTORE JUMP JUMPDEST PUSH1 0x1 PUSH1 0x1 PUSH1 0xA0 SHL SUB DUP3 AND PUSH0 SWAP1 DUP2 MSTORE PUSH1 0x2 PUSH1 0x20 DUP2 DUP2 MSTORE PUSH1 0x40 DUP1 DUP5 KECCAK256 DUP6 DUP6 MSTORE PUSH1 0x3 DUP4 MSTORE DUP2 DUP6 KECCAK256 SWAP4 DUP2 ADD SWAP1 SWAP3 MSTORE SWAP1 SWAP3 KECCAK256 SLOAD NUMBER SWAP1 SUB PUSH2 0x11FC JUMPI POP POP POP POP JUMP JUMPDEST PUSH0 DUP4 DUP2 MSTORE PUSH1 0x3 PUSH1 0x20 DUP2 DUP2 MSTORE PUSH1 0x40 DUP1 DUP5 KECCAK256 SWAP1 SWAP3 ADD SLOAD PUSH1 0x2 DUP7 ADD SWAP1 SWAP2 MSTORE SWAP1 DUP3 KECCAK256 SLOAD SWAP1 SWAP2 SWAP1 PUSH2 0x1228 SWAP1 NUMBER PUSH2 0x1521 JUMP JUMPDEST SWAP1 POP PUSH0 PUSH8 0xDE0B6B3A7640000 PUSH3 0x201480 DUP4 DUP6 DUP9 PUSH1 0x1 ADD PUSH0 DUP12 DUP2 MSTORE PUSH1 0x20 ADD SWAP1 DUP2 MSTORE PUSH1 0x20 ADD PUSH0 KECCAK256 SLOAD PUSH2 0x1258 SWAP2 SWAP1 PUSH2 0x1563 JUMP JUMPDEST PUSH2 0x1262 SWAP2 SWAP1 PUSH2 0x1563 JUMP JUMPDEST PUSH2 0x126C SWAP2 SWAP1 PUSH2 0x157A JUMP JUMPDEST PUSH2 0x1276 SWAP2 SWAP1 PUSH2 0x157A JUMP JUMPDEST SWAP1 POP DUP1 DUP6 PUSH1 0x1 ADD PUSH0 DUP9 DUP2 MSTORE PUSH1 0x20 ADD SWAP1 DUP2 MSTORE PUSH1 0x20 ADD PUSH0 KECCAK256 PUSH0 DUP3 DUP3 SLOAD PUSH2 0x129A SWAP2 SWAP1 PUSH2 0x14C6 JUMP JUMPDEST SWAP3 POP POP DUP2 SWAP1 SSTORE POP DUP1 DUP5 PUSH1 0x2 ADD PUSH0 DUP3 DUP3 SLOAD PUSH2 0x12B4 SWAP2 SWAP1 PUSH2 0x14C6 JUMP JUMPDEST SWAP1 SWAP2 SSTORE POP POP POP PUSH0 SWAP5 DUP6 MSTORE POP POP POP PUSH1 0x2 ADD PUSH1 0x20 MSTORE PUSH1 0x40 SWAP1 KECCAK256 NUMBER SWAP1 SSTORE POP JUMP JUMPDEST PUSH1 0x1 SLOAD PUSH1 0x1 PUSH1 0x1 PUSH1 0xA0 SHL SUB AND CALLER EQ PUSH2 0x8C9 JUMPI PUSH1 0x40 MLOAD PUSH4 0x118CDAA7 PUSH1 0xE0 SHL DUP2 MSTORE CALLER PUSH1 0x4 DUP3 ADD MSTORE PUSH1 0x24 ADD PUSH2 0x33D JUMP JUMPDEST PUSH1 0x1 DUP1 SLOAD PUSH1 0x1 PUSH1 0x1 PUSH1 0xA0 SHL SUB DUP4 DUP2 AND PUSH1 0x1 PUSH1 0x1 PUSH1 0xA0 SHL SUB NOT DUP4 AND DUP2 OR SWAP1 SWAP4 SSTORE PUSH1 0x40 MLOAD SWAP2 AND SWAP2 SWAP1 DUP3 SWAP1 PUSH32 0x8BE0079C531659141344CD1FD0A4F28419497F9722A3DAAFE3B4186F6B6457E0 SWAP1 PUSH0 SWAP1 LOG3 POP POP JUMP JUMPDEST PUSH0 DUP3 DUP3 XOR DUP3 DUP5 LT MUL DUP3 XOR JUMPDEST SWAP4 SWAP3 POP POP POP JUMP JUMPDEST PUSH0 PUSH1 0x20 DUP3 DUP5 SUB SLT ISZERO PUSH2 0x1371 JUMPI PUSH0 PUSH0 REVERT JUMPDEST POP CALLDATALOAD SWAP2 SWAP1 POP JUMP JUMPDEST PUSH0 PUSH0 PUSH1 0x40 DUP4 DUP6 SUB SLT ISZERO PUSH2 0x1389 JUMPI PUSH0 PUSH0 REVERT JUMPDEST POP POP DUP1 CALLDATALOAD SWAP3 PUSH1 0x20 SWAP1 SWAP2 ADD CALLDATALOAD SWAP2 POP JUMP JUMPDEST DUP1 CALLDATALOAD PUSH1 0x1 PUSH1 0x1 PUSH1 0xA0 SHL SUB DUP2 AND DUP2 EQ PUSH2 0x13AE JUMPI PUSH0 PUSH0 REVERT JUMPDEST SWAP2 SWAP1 POP JUMP JUMPDEST PUSH0 PUSH0 PUSH1 0x40 DUP4 DUP6 SUB SLT ISZERO PUSH2 0x13C4 JUMPI PUSH0 PUSH0 REVERT JUMPDEST PUSH2 0x13CD DUP4 PUSH2 0x1398 JUMP JUMPDEST SWAP5 PUSH1 0x20 SWAP4 SWAP1 SWAP4 ADD CALLDATALOAD SWAP4 POP POP POP JUMP JUMPDEST PUSH0 PUSH0 PUSH0 PUSH0 PUSH1 0x80 DUP6 DUP8 SUB SLT ISZERO PUSH2 0x13EE JUMPI PUSH0 PUSH0 REVERT JUMPDEST PUSH2 0x13F7 DUP6 PUSH2 0x1398 JUMP JUMPDEST SWAP7 PUSH1 0x20 DUP7 ADD CALLDATALOAD SWAP7 POP PUSH1 0x40 DUP7 ADD CALLDATALOAD SWAP6 PUSH1 0x60 ADD CALLDATALOAD SWAP5 POP SWAP3 POP POP POP JUMP JUMPDEST PUSH0 PUSH1 0x20 DUP3 DUP5 SUB SLT ISZERO PUSH2 0x1421 JUMPI PUSH0 PUSH0 REVERT JUMPDEST PUSH2 0x135A DUP3 PUSH2 0x1398 JUMP JUMPDEST PUSH0 PUSH0 PUSH1 0x40 DUP4 DUP6 SUB SLT ISZERO PUSH2 0x143B JUMPI PUSH0 PUSH0 REVERT JUMPDEST DUP3 CALLDATALOAD SWAP2 POP PUSH2 0x144B PUSH1 0x20 DUP5 ADD PUSH2 0x1398 JUMP JUMPDEST SWAP1 POP SWAP3 POP SWAP3 SWAP1 POP JUMP JUMPDEST PUSH1 0x20 DUP1 DUP3 MSTORE PUSH1 0xD SWAP1 DUP3 ADD MSTORE PUSH13 0x125B9D985B1A5908185CDCD95D PUSH1 0x9A SHL PUSH1 0x40 DUP3 ADD MSTORE PUSH1 0x60 ADD SWAP1 JUMP JUMPDEST PUSH1 0x20 DUP1 DUP3 MSTORE PUSH1 0x1D SWAP1 DUP3 ADD MSTORE PUSH32 0x416D6F756E74206D7573742062652067726561746572207468616E2030000000 PUSH1 0x40 DUP3 ADD MSTORE PUSH1 0x60 ADD SWAP1 JUMP JUMPDEST PUSH4 0x4E487B71 PUSH1 0xE0 SHL PUSH0 MSTORE PUSH1 0x11 PUSH1 0x4 MSTORE PUSH1 0x24 PUSH0 REVERT JUMPDEST DUP1 DUP3 ADD DUP1 DUP3 GT ISZERO PUSH2 0x801 JUMPI PUSH2 0x801 PUSH2 0x14B2 JUMP JUMPDEST PUSH0 PUSH1 0x20 DUP3 DUP5 SUB SLT ISZERO PUSH2 0x14E9 JUMPI PUSH0 PUSH0 REVERT JUMPDEST DUP2 MLOAD DUP1 ISZERO ISZERO DUP2 EQ PUSH2 0x135A JUMPI PUSH0 PUSH0 REVERT JUMPDEST PUSH1 0x20 DUP1 DUP3 MSTORE PUSH1 0xF SWAP1 DUP3 ADD MSTORE PUSH15 0x151C985B9CD9995C8819985A5B1959 PUSH1 0x8A SHL PUSH1 0x40 DUP3 ADD MSTORE PUSH1 0x60 ADD SWAP1 JUMP JUMPDEST DUP2 DUP2 SUB DUP2 DUP2 GT ISZERO PUSH2 0x801 JUMPI PUSH2 0x801 PUSH2 0x14B2 JUMP JUMPDEST PUSH0 PUSH1 0x20 DUP3 DUP5 SUB SLT ISZERO PUSH2 0x1544 JUMPI PUSH0 PUSH0 REVERT JUMPDEST POP MLOAD SWAP2 SWAP1 POP JUMP JUMPDEST PUSH0 PUSH1 0x1 DUP3 ADD PUSH2 0x155C JUMPI PUSH2 0x155C PUSH2 0x14B2 JUMP JUMPDEST POP PUSH1 0x1 ADD SWAP1 JUMP JUMPDEST DUP1 DUP3 MUL DUP2 ISZERO DUP3 DUP3 DIV DUP5 EQ OR PUSH2 0x801 JUMPI PUSH2 0x801 PUSH2 0x14B2 JUMP JUMPDEST PUSH0 DUP3 PUSH2 0x1594 JUMPI PUSH4 0x4E487B71 PUSH1 0xE0 SHL PUSH0 MSTORE PUSH1 0x12 PUSH1 0x4 MSTORE PUSH1 0x24 PUSH0 REVERT JUMPDEST POP DIV SWAP1 JUMP INVALID LOG2 PUSH5 0x6970667358 0x22 SLT KECCAK256 0xE1 PUSH28 0x56B6291E9F9E07CE5BBA67BF719A62C76BA19FCBA8E2943496EEF69D 0xE1 PC PUSH5 0x736F6C6343 STOP ADDMOD SHL STOP CALLER ","linkReferences":{}},"methodIdentifiers":{"BAD_DEBT_RATIO()":"a0e17e1f","LIQUIDATION_CLOSE_FACTOR()":"ff2891b7","MAX_LOOPS()":"37a2eb71","PRECISION()":"aaf5eb68","addAsset(address,uint256)":"66a6a4bd","assetCount()":"eafe7a74","assets(uint256)":"cf35bdd0","borrow(uint256,uint256)":"0ecbcdab","calculateHealthFactor(address)":"9ce625f7","deposit(uint256,uint256)":"e2bbb158","getAssetPrice(uint256)":"5e694cf5","getInterestRate(uint256)":"0c196a74","liquidate(address,uint256,uint256,uint256)":"8a1d3446","owner()":"8da5cb5b","priceOracles(uint256)":"2d239dbb","renounceOwnership()":"715018a6","repay(uint256,uint256)":"d8aed145","setPriceOracle(uint256,address)":"b47ab19e","transferOwnership(address)":"f2fde38b","withdraw(uint256,uint256)":"441a3e70"}}}}}